S01800007370695F61746D6567615F736C6176652E7372656378
S11300000C942A000C9434000C9434000C943400A6
S11300100C9434000C9434000C9434000C9434008C
S11300200C9434000C9434000C9434000C9434007C
S11300300C9434000C9434000C9434000C9434006C
S11300400C9434000C9434000C9434000C9434005C
S11300500C94340011241FBECFE5D8E0DEBFCDBF21
S11300600E9436000C9446000C9400008FEF84BB71
S113007080E487BB18BA8CE48DB981E68FB9779B8D
S1130080FECF80E88EB98FB185BBF7CFF894FFCF50
S9030000FC
